:100000000C942A000C9447000C9447000C94470071
:100010000C9447000C9447000C9447000C94470044
:100020000C9447000C9447000C9447000C94470034
:100030000C9447000C9447000C9447000C94470024
:100040000C9447000C9447000C9447000C94470014
:100050000C94470011241FBECFE5D8E0DEBFCDBF12
:1000600010E0A0E6B0E0EEE5F5E102C005900D92EB
:10007000A03DB107D9F720E0A0EDB0E001C01D928E
:10008000A33EB207E1F70E942D080C94AD0A0C9430
:1000900000001092DB001092DC001092DD00109244
:1000A000DE001092D7001092D8001092D900109262
:1000B000DA001092D6001092D2001092D300109263
:1000C000D4001092D5001092D1001092D000089563
:1000D000CF930E9408050E949F030E9485050E94FD
:1000E0008B05C0E0EC2FF0E0E754FF4F80818111D9
:1000F0000FC02FEF89E698E1215080409040E1F752
:1001000000C000000E94850581E090E0CF91089535
:100110000E946905CF5FE6CF2F923F924F925F9288
:100120006F927F928F929F92AF92BF92CF92DF9207
:10013000EF92FF920F931F93CF93DF931F92CDB750
:10014000DEB7B12CA12C1091D1001111A2C0CE01AB
:1001500001960E94F20389818F3FC9F38D3309F024
:100160004DC10E9469055C018091D6008B3209F473
:10017000C9C008F0A3C08A3209F4F8C0C090D20008
:10018000D090D300E090D400F090D500C701B60124
:100190000E9483090E94B2099B01AC01C701B6010C
:1001A0000E949D0820E030E04AE754E40E94400AA3
:1001B0000E9483092B013C01C701B6010E947C0902
:1001C0006B017C011FEC411451046104710429F19D
:1001D000812F0E947705C301B2012AE030E040E0A0
:1001E00050E00E944208022F932E842E352E80E389
:1001F000860F0E946905402E592C682C732C8FEFB6
:10020000810F411451046104710409F0D9C00E94A6
:1002100077058EE20E94690512509AE0492E512C12
:10022000612C712CF7FEE4C0F094E094D094C0945B
:10023000C11CD11CE11CF11C8AE0282E312C412C60
:10024000512C812F0E947705C701B601A2019101AF
:100250000E946408722E832E942E052F80E3860F51
:100260000E946905C72CD82CE92CF02E1150C1141E
:10027000D104E104F10429F7812F0E9477058DE272
:100280000E9469050E948B050E94490081E08093CD
:10029000D000C5010F90DF91CF911F910F91FF907A
:1002A000EF90DF90CF90BF90AF909F908F907F9016
:1002B0006F905F904F903F902F9008958D3209F48A
:1002C00040C08F3209F05ACFC090D700D090D800EC
:1002D000E090D900F090DA00C114D104E104F104F7
:1002E00009F057C00E9485050E948B05E12FF0E0C0
:1002F000E653FF4F8081882309F440CF0E946905AF
:100300001F5FF4CF6091DB007091DC008091DD0015
:100310009091DE000091D7001091D8002091D90073
:100320003091DA00600F711F821F931F0E94B40981
:100330006093D2007093D3008093D4009093D50043
:100340001DCF6091DB007091DC008091DD00909109
:10035000DE000091D7001091D8002091D900309193
:10036000DA00601B710B820B930BE0CF2091DB0056
:100370003091DC004091DD005091DE006091D700AB
:100380007091D8008091D9009091DA000E943208D3
:10039000CDCF6091DB007091DC008091DD00909109
:1003A000DE000E94B4092B013C01C701B6010E9486
:1003B000B4099B01AC01C301B2010E940A09B8CF84
:1003C000182F06CF812F0E947705C701B601A30120
:1003D00092010E946408322E832E942E052F80E312
:1003E000860F0E946905C32CD82CE92CF02E1150E1
:1003F000C114D104E104F10429F744CF90ED980F22
:100400009A3008F062C08091D000813021F40E94BF
:1004100085051092D0008091D600811134C0809162
:10042000DB009091DC00A091DD00B091DE00892B13
:100430008A2B8B2B11F40E9485052091DB003091D3
:10044000DC004091DD005091DE00AAE0B0E00E94A7
:10045000830829812053330B8901330F220B330B7F
:10046000DC01CB01800F911FA21FB31F8093DB0023
:100470009093DC00A093DD00B093DE0089810E94A0
:1004800069055C0160CE2091D7003091D800409181
:10049000D9005091DA00AAE0B0E00E9483082981D7
:1004A0002053330B8901330F220B330BDC01CB01BB
:1004B000800F911FA21FB31F8093D7009093D80085
:1004C000A093D900B093DA00D9CF833431F40E94DD
:1004D00085055C010E94490036CE0E9469055C01D9
:1004E0008091D000813021F40E9485051092D000C7
:1004F0001092D10089818093D60025CE08958FEF88
:100500008ABB9CEF97BB84BB81BB1BBA18BA15BAD8
:1005100012BA81E090E00895843080F4823051F086
:10052000833051F0813021F06ABB81E090E0089582
:1005300067BBFBCF64BBF9CF61BBF7CF83E090E033
:100540000895843080F4823051F0833051F081304E
:1005500021F06BBB81E090E0089568BBFBCF65BBE9
:10056000F9CF62BBF7CF83E090E008958430C0F408
:10057000823071F0833081F0813031F08BB380951F
:100580008BBB81E090E0089588B3809588BBF9CF5C
:1005900085B3809585BBF5CF82B3809582BBF1CFC3
:1005A00083E090E00895FB018430B8F43097C1F007
:1005B000823059F0833059F0813029F089B380833B
:1005C00081E090E0089586B3FACF83B3F8CF80B38B
:1005D000808382B3809582BBF3CF83E090E008955F
:1005E00082E090E00895843060F5683050F5423044
:1005F00040F521E030E0062E01C0220F0A94EAF710
:10060000209501C0440F6A95EAF7823081F083306B
:1006100099F0813039F08AB32823242B2ABB90E04B
:1006200080E0089587B32823242B27BBF8CF84B319
:100630002823242B24BBF3CF81B32823242B21BBD5
:10064000EECF83E090E00895843060F5683050F597
:10065000423040F521E030E0062E01C0220F0A941E
:10066000EAF7209501C0440F6A95EAF7823081F0DD
:10067000833099F0813039F08BB32823242B2BBBA6
:1006800090E080E0089588B32823242B28BBF8CF7E
:1006900085B32823242B25BBF3CF82B32823242B17
:1006A00022BBEECF83E090E00895843000F56830FF
:1006B000F0F421E030E001C0220F6A95EAF78230C1
:1006C00071F0833081F0813031F08BB328272BBB60
:1006D00090E080E0089588B3282728BBF9CF85B340
:1006E000282725BBF5CF82B3282722BBF1CF83E093
:1006F00090E00895FA018430E0F46830D0F4309747
:10070000D9F0823091F0833091F0813061F089B37B
:1007100090E002C0959587956A95E2F78170808395
:1007200090E080E0089586B3F3CF83B3F1CF80B338
:10073000EFCF83E090E0089582E090E0089540E0FC
:1007400064E083E00E94F30240E065E083E00E9401
:10075000F30240E066E083E00E94F30240E067E0DD
:1007600083E00E94F30241E060E083E00E94F30234
:1007700041E061E083E00E94F30241E062E083E057
:100780000E94F30241E063E083E00E94F30241E053
:1007900064E083E00E94240341E065E083E00E947E
:1007A000240341E066E083E00E94240341E067E027
:1007B00083E00E94240341E060E083E00E94240380
:1007C00041E061E083E00E94240341E062E083E0D5
:1007D0000E94240341E063E083E00E94240390E050
:1007E00080E008951F93CF93DF93EC018FEF809308
:1007F000E2001092E1001FEFE091E100E43030F000
:100800008091E200888390E080E041C0F0E0E5550F
:10081000FF4F40E0608183E00E9424031092E000DB
:10082000E091E000E43080F0E091E100F0E0E55597
:10083000FF4F41E0608183E00E9424038091E1004A
:100840008F5F8093E100D8CFF0E0E955FF4F4FED87
:1008500050E0608183E00E947A038091DF00811183
:1008600024C08091E00090E02091DF00222399F0E5
:100870002091E100880F991F880F991F89569F4F7B
:10088000820F911DFC018081888381E090E0DF91DF
:10089000CF911F91089589559F4F4FED50E0FC0176
:1008A000608183E00E947A03DCCF1093E2008091A4
:1008B000E0008F5F8093E000B3CFCF93C82F40E07C
:1008C00060E080E00E94240340E061E080E00E945C
:1008D000240340E062E080E00E9424034C2F41703A
:1008E00060E081E00E942403C1FB442740F961E0FD
:1008F00081E00E942403C2FB442740F962E081E0CA
:100900000E942403C3FB442740F963E081E00E9476
:100910002403C4FB442740F964E081E00E942403DF
:100920004C2F42954695477065E081E00E94240374
:1009300040E066E081E00E94240340E067E081E05F
:100940000E94240341E062E080E00E9424038FE1E2
:100950009EE40197F1F700C0000040E062E080E013
:10096000CF910C942403CF93C82F40E061E080E046
:100970000E94240340E062E080E00E942403C4FB64
:10098000442740F964E081E00E942403C5FB44272A
:1009900040F965E081E00E942403C6FB442740F94A
:1009A00066E081E00E9424034C2F441F4427441F2B
:1009B00067E081E00E9424034C2F417060E081E0F9
:1009C0000E942403C1FB442740F961E081E00E94BA
:1009D0002403C2FB442740F962E081E00E94240323
:1009E000C3FB442740F963E081E00E94240341E017
:1009F00062E080E00E9424038FE19EE40197F1F71A
:100A000000C0000040E062E080E0CF910C9424033D
:100A100041E060E080E00E94F30241E061E080E0BC
:100A20000E94F30241E062E080E00E94F30241E0B4
:100A300064E081E00E94F30241E065E081E00E9411
:100A4000F30241E066E081E00E94F30241E067E0EA
:100A500081E00E94F3022FEB8AED90E0215080406C
:100A60009040E1F700C0000041E060E081E00E94BA
:100A7000F30241E061E081E00E94F30241E062E0C4
:100A800081E00E94F30241E063E081E00E94F30212
:100A900088E30E945D048FEC97E00197F1F700C0B6
:100AA00000008FE00E945D048FEC97E00197F1F762
:100AB00000C0000081E00E945D048FE99FE0019783
:100AC000F1F700C0000086E00E945D0490E080E045
:100AD0000895CF93C82F41E060E080E00E94240396
:100AE0008C2F0E94B30490E080E0CF910895CF93C3
:100AF000C82F40E060E080E00E9424038C2F0E9419
:100B0000B30490E080E0CF91089581E00E945D04FD
:100B100090E080E0089582E00E945D0490E080E033
:100B200008950F931F93CF93DF93009759F1EC0132
:100B30008C01085F1F4F4B81698188810E942403CB
:100B40008A81811115C08B81813011F440E003C08E
:100B5000811115C041E0698188810E942403249697
:100B6000C017D10741F7DF91CF911F910F910895E1
:100B7000813029F48B81813069F3882339F383E054
:100B800090E0EDCF82E090E0EECFFC01892B59F0B0
:100B9000828140E0882319F0813041F441E0618195
:100BA00080810C94240382E090E0089583E090E03B
:100BB0000895FC01892B59F0828141E0882319F0C6
:100BC000813041F440E0618180810C94240382E013
:100BD00090E0089583E090E008950F931F93CF93E2
:100BE000DF93009709F444C0EC018C010A5D1F4FAC
:100BF00041E0698188810E94F30241E06B818A8132
:100C00000E94F30241E06D818C810E94F30241E079
:100C10006F818E810E94F30241E0698588850E9480
:100C2000F30241E06B858A850E94F30241E06D8505
:100C30008C850E94F3022F85222339F06E8566236E
:100C400021F041E0822F0E94F3022989222339F00A
:100C50006889662321F041E0822F0E94F3026396A7
:100C6000C017D10729F6DF91CF911F910F910895F9
:100C700090E080E0F8CF0F931F93CF93DF936A301B
:100C800008F0D7C0823008F0D4C0E62F082F10E05B
:100C900093E1899FE0011124C859DF4F8A898111AE
:100CA00038C0F0E0E155FF4F1081412F417069815C
:100CB00088810E94240311FB442740F96B818A81BB
:100CC0000E94240312FB442740F96D818C810E940D
:100CD000240313FB442740F96F818E810E94240373
:100CE00014FB442740F9698588850E94240315FB7D
:100CF000442740F96B858A850E94240316FB44270C
:100D000040F96D858C85DF91CF911F910F910C94E7
:100D10002403813009F094C0F0E0E155FF4FC08119
:100D200041E0C11140E083E1809FF001819FF00D1F
:100D30001124E859FF4F618180810E94240341E022
:100D40008C2F869509F040E083E1809FF001819F20
:100D5000F00D1124E859FF4F638182810E94240322
:100D600041E08C2F8695869509F040E083E1809FD5
:100D7000F001819FF00D1124E859FF4F65818481B6
:100D80000E94240341E08C2F86958695869509F074
:100D900040E083E1809FF001819FF00D1124E8592C
:100DA000FF4F678186810E94240341E08C2F82954A
:100DB0008F7009F040E083E1809FF001819FF00D8A
:100DC0001124E859FF4F618580850E94240341E08A
:100DD0008C2F82958695877009F040E083E1809F93
:100DE000F001819FF00D1124E859FF4F6385828542
:100DF0000E94240341E08C2F82958695869583700E
:100E000009F040E023E1209FC001219F900D1124B3
:100E10008C0108591F4FF801658584850E942403C1
:100E20004C2F4095441F4427441FF8016089818955
:100E30006ACF83E090E0DF91CF911F910F910895E9
:100E400084E090E0F8CF823098F493E1899FF0013C
:100E50001124E859FF4F6685662351F0828941E0ED
:100E6000882319F0813039F440E087850C942403FD
:100E700083E090E0089584E090E00895823098F453
:100E800093E1899FF0011124E859FF4F668566239D
:100E900051F0828940E0882319F0813039F441E033
:100EA00087850C94240383E090E0089584E090E02B
:100EB0000895823098F493E1899FF0011124E85954
:100EC000FF4F6089662351F0828941E0882319F041
:100ED000813039F440E081890C94240383E090E070
:100EE000089584E090E00895823098F493E1899F1A
:100EF000F0011124E859FF4F6089662351F082897F
:100F000040E0882319F0813039F441E081890C9464
:100F1000240383E090E0089584E090E00895CF9367
:100F2000DF93823008F066C093E1899FE0011124CD
:100F3000C859DF4F8A8981112AC040E069818881C0
:100F40000E94240340E06B818A810E94240340E0D8
:100F50006D818C810E94240340E06F818E810E940C
:100F6000240340E0698588850E94240340E06B8566
:100F70008A850E94240340E06D858C850E942403AD
:100F8000688940E0611131C0DF91CF9108958130CF
:100F9000A1F541E0698188810E94240341E06B81D1
:100FA0008A810E94240341E06D818C810E94240388
:100FB00041E06F818E810E94240341E0698588852C
:100FC0000E94240341E06B858A850E94240341E04E
:100FD0006D858C850E94240341E0688989890E947F
:100FE00024036889662381F241E08989DF91CF91EA
:100FF0000C94240383E090E0C7CF84E090E0C4CF5A
:101000000F931F93CF93DF930097B9F0EC018C01FE
:10101000075F1F4F40E0698188810E94F3024A8187
:10102000698188810E9424032396C017D10791F714
:10103000DF91CF911F910F91089582E090E0F8CF5A
:10104000AB01009739F0672B29F0FC0161818081A9
:101050000C947A0382E090E008950E9468000E9458
:101060008C00FDCFDB018F939F930E948308BF917B
:10107000AF91A29F800D911DA39F900DB29F900DE7
:1010800011240895A1E21A2EAA1BBB1BFD010DC05D
:10109000AA1FBB1FEE1FFF1FA217B307E407F50728
:1010A00020F0A21BB30BE40BF50B661F771F881F04
:1010B000991F1A9469F760957095809590959B019A
:1010C000AC01BD01CF010895052E97FB1EF40094DD
:1010D0000E947B0857FD07D00E94420807FC03D0FE
:1010E0004EF40C947B0850954095309521953F4FD8
:1010F0004F4F5F4F089590958095709561957F4F04
:101100008F4F9F4F08950E948E08A59F900DB49F0A
:10111000900DA49F800D911D11240895A29FB001F0
:10112000B39FC001A39F700D811D1124911DB29F1B
:10113000700D811D1124911D08955058BB27AA27B9
:101140000E94B5080C94060A0E94F80938F00E9423
:10115000FF0920F039F49F3F19F426F40C94F509A7
:101160000EF4E095E7FB0C94EF09E92F0E94170AB3
:1011700058F3BA17620773078407950720F079F4CC
:10118000A6F50C94390A0EF4E0950B2EBA2FA02D7B
:101190000B01B90190010C01CA01A0011124FF2724
:1011A000591B99F0593F50F4503E68F11A16F0401F
:1011B000A22F232F342F4427585FF3CF469537951E
:1011C0002795A795F0405395C9F77EF41F16BA0BE3
:1011D000620B730B840BBAF09150A1F0FF0FBB1F91
:1011E000661F771F881FC2F70EC0BA0F621F731FDA
:1011F000841F48F4879577956795B795F7959E3F37
:1012000008F0B0CF9395880F08F09927EE0F9795C7
:10121000879508950E941E090C94060A0E94FF09F2
:1012200058F00E94F80940F029F45F3F29F00C942F
:10123000EF0951110C943A0A0C94F5090E94170A0F
:1012400068F39923B1F3552391F3951B550BBB27F5
:10125000AA2762177307840738F09F5F5F4F220F3A
:10126000331F441FAA1FA9F335D00E2E3AF0E0E831
:1012700032D091505040E695001CCAF72BD0FE2F7B
:1012800029D0660F771F881FBB1F2617370748070F
:10129000AB07B0E809F0BB0B802DBF01FF279358C7
:1012A0005F4F3AF09E3F510578F00C94EF090C9493
:1012B0003A0A5F3FE4F3983ED4F3869577956795B5
:1012C000B795F7959F5FC9F7880F911D96958795FC
:1012D00097F90895E1E0660F771F881FBB1F62171B
:1012E00073078407BA0720F0621B730B840BBA0BD9
:1012F000EE1F88F7E09508950E9483096894B11164
:101300000C943A0A08950E941F0A88F09F5798F09B
:10131000B92F9927B751B0F0E1F0660F771F881FFA
:10132000991F1AF0BA95C9F714C0B13091F00E9414
:10133000390AB1E008950C94390A672F782F88276D
:10134000B85F39F0B93FCCF3869577956795B3953B
:10135000D9F73EF490958095709561957F4F8F4FAA
:101360009F4F0895E89409C097FB3EF490958095AF
:10137000709561957F4F8F4F9F4F9923A9F0F92F5B
:1013800096E9BB279395F695879577956795B795D9
:10139000F111F8CFFAF4BB0F11F460FF1BC06F5FBF
:1013A0007F4F8F4F9F4F16C0882311F096E911C0D1
:1013B000772321F09EE8872F762F05C0662371F0F2
:1013C00096E8862F70E060E02AF09A95660F771F06
:1013D000881FDAF7880F9695879597F9089597F9FA
:1013E0009F6780E870E060E008959FEF80EC0895CB
:1013F00000240A94161617061806090608950024F4
:101400000A9412161306140605060895092E03946D
:10141000000C11F4882352F0BB0F40F4BF2B11F4E1
:1014200060FF04C06F5F7F4F8F4F9F4F089557FD40
:101430009058440F551F59F05F3F71F04795880F42
:1014400097FB991F61F09F3F79F0879508951216D9
:1014500013061406551FF2CF4695F1DF08C0161685
:1014600017061806991FF1CF869571056105089436
:101470000895E894BB2766277727CB0197F908954D
:101480000E94530A0C94060A0E94F80938F00E9440
:10149000FF0920F0952311F00C94EF090C94F50945
:1014A00011240C943A0A0E94170A70F3959FC1F315
:1014B000950F50E0551F629FF001729FBB27F00D02
:1014C000B11D639FAA27F00DB11DAA1F649F662757
:1014D000B00DA11D661F829F2227B00DA11D621FA6
:1014E000739FB00DA11D621F839FA00D611D221F60
:1014F000749F3327A00D611D231F849F600D211D44
:10150000822F762F6A2F11249F5750409AF0F1F0C6
:1015100088234AF0EE0FFF1FBB1F661F771F881F2F
:1015200091505040A9F79E3F510580F00C94EF096F
:101530000C943A0A5F3FE4F3983ED4F3869577958E
:101540006795B795F795E7959F5FC1F7FE2B880FD5
:0E155000911D9695879597F90895F894FFCF11
:10155E000000010000010100000000010002000374
:10156E000004000500060002070000010001010151
:10157E000201030104010501060002070100020039
:10158E00010201010202013738392F3435362A3172
:10159E0032332D43303D2B04050607000102033F75
:1015AE00065B4F666D7D077F6F48656C6C6F2043E1
:1015BE00616C63756C61746F72004572726F72004C
:00000001FF
